:020000040800F2
:1000000058050020010100082714000869120008A3
:10001000251400087D010008C91700080000000031
:10002000000000000000000000000000191500089A
:100030007F01000800000000291400081B150008BB
:100040001B0100081B0100081B0100081B01000820
:100050001B0100081B010008F10100080D02000847
:100060001B0100081B0100081B0100081B01000800
:100070001B0100081B0100081B0100081B010008F0
:100080001B0100081B0100081B0100081B010008E0
:100090001B0100081B0100081B0100081B010008D0
:1000A0001B0100081B0100081B0100081B010008C0
:1000B0001B0100081B0100081B0100081B010008B0
:1000C0001B0100081B0100081B0100081B010008A0
:1000D0001B010008591700081B0100081B0100083C
:1000E000F70100081B0100081B010008DFF80CD015
:1000F00000F032F800480047551A00085805002063
:100100000648804706480047FEE7FEE7FEE7FEE7B1
:10011000FEE7FEE7FEE7FEE7FEE7FEE77D150008E7
:10012000ED000008D2B201E000F8012B491EFBD21D
:1001300070470022F6E710B513460A4604461946F2
:10014000FFF7F0FF204610BD421C10F8011B0029EC
:10015000FBD1801A70470000064C074D06E0E068AE
:1001600040F0010394E8070098471034AC42F6D3FE
:10017000FFF7C0FFF840000818410008FEE770478D
:1001800010B500F04BFB0949B0FBF1F008490860DD
:100190000848016841F08071016007480021416012
:1001A000016841F40031016010BD000040420F00C1
:1001B00004000020FCED00E0001000E030B5044633
:1001C0004FF47A7502E0284600F004F8641EFAD273
:1001D00030BD000004494A68044B1B6858434B6813
:1001E0009B1A8342FBD37047001000E004000020FC
:1001F000012000F0D9B810B54FF4806000F0D4F8B9
:10020000BDE810404FF4804000F0CEB8022000F06E
:10021000CBB872B6FEE710B590F821100022022983
:1002200005D00421816380F82020012010BD0168E1
:100230000B6823F00E030B6001680B6823F00103C9
:100240000B6090F84030C46B012101FA03F3636046
:1002500080F8211080F82020104610BD10B590F8CD
:1002600021100024022903D00421816301243DE0F0
:1002700001680A6822F00E020A6001680A6822F02A
:1002800001020A601A4A0168914201D1012121E06C
:10029000174A1432914201D110211BE0144A28322E
:1002A000914201D1891515E0114A3C32914201D1A8
:1002B00089140FE00E4A5032914202D14FF480313E
:1002C00008E00B4A6432914202D14FF4801101E000
:1002D0004FF08071064A083A5160012180F82110E0
:1002E000002180F82010416B01B18847204610BDE5
:1002F000080002402DE9F047DFF89890002586B00D
:1003000099F800102E46002940D1234A6C46D2E9C4
:100310000213CDE9001321A104AB09680491002167
:1003200034F81170874200D15D5C491CC9B20429C0
:10033000F6D3D2E90001CDE9020119A0DFF864800B
:10034000006800240DF1140A02AF059037F814106C
:10035000404600F025F901280DD10A20FFF73AFFA9
:1003600002E000BF1AF8046037F81410404600F0AD
:1003700017F90028F6D1641CE4B2032CE6D3002D53
:1003800004D0002E02D0354389F8005006B0BDE8F5
:10039000F0870000000000205C240008102030409E
:1003A00001020300000C0140044910B50A68024232
:1003B00002D00860FFF79EFF10BD0000140401404A
:1003C0002DE9F84FDFF8B8910024A9F1040B23467A
:1003D0000F2709F1040AABF1040EC9E00125A5407D
:1003E0002A40AA427DD1674ED1F804C0ACEB060882
:1003F000B44532D014DCBCF1030F3AD009DCBCF1B7
:10040000000F2AD0BCF1010F1CD0BCF1020F31D17A
:100410001DE0BCF1110F17D0BCF1120F2AD119E069
:10042000B8F5881F19D006DCB8F5803F15D0B8F5AF
:10043000801F1FD111E0B8F5001F0ED0B8F5041FC2
:1004400018D10AE0CB6815E0CB681B1D12E0CB6821
:1004500008330FE0CB680C330CE08B682BB1012B19
:100460004FF0080303D0456104E0042302E0056176
:1004700000E00023FF2A01D8064601E000F104064F
:100480004FEA840501D9A5F12005D6F8008007FAC6
:1004900005FC28EA0C0803FA05F548EA0508C6F841
:1004A00000804D68ED0062D5374DAE6946F001061B
:1004B000AE61AD6924F0030605F001050095334DEA
:1004C00006EB050CDCF80850A607360F07FA06F80D
:1004D00025EA0805DFF8B880404503D14FF0000851
:1004E00017E044E0DFF8AC80404502D14FF001084E
:1004F0000FE0DFF8A480404502D14FF0020808E089
:10050000DFF89880404502D14FF0030801E04FF03A
:10051000040808FA06F848EA0508CCF808804D688F
:10052000D9F80060ED024D4601D5164300E0964330
:100530002E604D68DAF80060AD02554601D51643CD
:1005400000E096432E604D68DBF80060AD035D4629
:1005500001D5164300E096432E604D68DEF800603A
:10056000ED03754601D5164300E096432E60641CEA
:100570000D682A46E5407FF431AFBDE8F88F0000F2
:10058000080401400000111000100240000001406A
:1005900000080140000C014000100140001401401F
:1005A0008068084000D0012070470AB1016170479F
:1005B0000904FBE701488068704700000C00002038
:1005C0000248816802781144816070470C00002065
:1005D000074810B5016841F010010160032000F0E8
:1005E00075F80F2000F006F800F024F8002010BD88
:1005F0000020024070B50D4D04464FF47A71287802
:10060000B1FBF0F00A490968B1FBF0F000F06CFCB6
:1006100048B9102C07D200222146501E00F036F8AF
:1006200000206C6070BD012070BD00000C00002037
:10063000180000200C4808B5816941F00101816172
:10064000816901F001010091C16941F08051C161EE
:10065000C06900F0805000900448416821F0E061DA
:1006600041F00071416008BD0010024000000140EF
:10067000002809DB00F01F020121914040098000A1
:1006800000F1E020C0F8001170470000F0B40E4BFC
:100690001B680C46C3F30223C3F10705042D00D9E0
:1006A0000425191D072901D2002300E0DB1E0126C5
:1006B00006FA05F1491E214099409E40761E1640DB
:1006C0003143F0BC01F092B80CED00E0064900F0B7
:1006D000070208684FF6FF03184040EA0220034A69
:1006E00010430860704700000CED00E00000FA05C0
:1006F0002DE9F0470F46050061D0434E306800F009
:100700000700B84209D2306820F007003843306053
:10071000306800F00700B84251D128683B4C81078F
:1007200012D5400703D5606840F4E0606060287827
:10073000000703D5606840F4605060606068A96895
:1007400020F0F000084360602878C00728D068686F
:10075000012810D02168022810D0890700292EDA3C
:10076000616821F0030101436160FFF723FF8046C8
:1007700041F288390DE021688903EFE78901EDE74F
:10078000FFF718FFA0EB0801494502D90320BDE897
:10079000F0876068696800F00C00B0EB810FEFD162
:1007A000306800F00700B8420BD9306820F007002D
:1007B00038433060306800F00700B84201D00120B3
:1007C000E5E72878400705D56068E96820F4E0602F
:1007D000084360602878000706D56068296920F41E
:1007E000605040EAC100606000F03EF86168084A6D
:1007F000C1F30311515CC84006490860064800680F
:10080000FFF7F8FE0020C2E700200240001002407F
:10081000DE40000818000020100000200148006899
:100820007047000018000020044805490068496826
:10083000044AC1F30221515CC840704718000020EF
:1008400000100240EE40000804480549006849686D
:10085000044AC1F3C221515CC8407047180000200F
:1008600000100240EE4000080E4A51680E4801F0A8
:100870000C03042B11D0082B0FD10C48C1F3834378
:10088000C903C05C0AD55168084AC1F34041921EB1
:10089000515C054A5043B0FBF1F0704704494843AE
:1008A000704700000010024000127A00CE4000089D
:1008B00000093D002DE9F84F040070D02078C04DAC
:1008C000C00749D06868C0F38100012807D0686874
:1008D000C0F38100022809D16868C00306D52868E2
:1008E000800339D560680028E7D035E06068B0F54E
:1008F000803F0BD010B1B0F5A02F11D0286820F4A4
:1009000080302860286820F4802002E0286840F4C5
:1009100080302860606890B1FFF74CFE06460AE020
:10092000286840F480202860F0E700BFFFF742FE0F
:10093000801B642873D828688003F7D50CE0FFF784
:1009400039FE064605E000BFFFF734FE801B642831
:10095000F0D828688003F7D420789A4E80074FF0AB
:1009600001094FF0000839D5686810F00C0F07D066
:100970006868C0F38100022809D16868C00306D402
:100980002868800714D52069012808D110E0206963
:10099000B0B1C6F80090FFF70DFE074605E00AE18A
:1009A000FFF708FEC01B0228C4D828688007F7D5C7
:1009B0002868616920F0F80040EAC10028600DE075
:1009C000C6F80080FFF7F6FD074604E0FFF7F2FDEA
:1009D000C01B022823D828688007F7D42078000796
:1009E0002CD57948A169D9B1C0F80090FFF7E2FD94
:1009F000074604E0FFF7DEFDC01B02280FD8686A37
:100A00008007F7D571484FF4FA510068B0FBF1F058
:100A1000009000BF0098411E0091FAD20EE080E0E5
:100A2000C0F80080FFF7C6FD074604E0FFF7C2FDEF
:100A3000C01B022875D8686A8007F7D42078400761
:100A400060D5E8690027C00008D4E86940F080500C
:100A5000E861E869012700F0805000905C48016877
:100A6000C90513D40168834641F480710160FFF722
:100A7000A1FD824606E000BFFFF79CFDA0EB0A0047
:100A800064284ED8DBF80000C005F5D5E0680128E1
:100A90000AD008B1052813D0286A20F00100286286
:100AA000286A20F0040002E0286A40F00100286271
:100AB000E06841F2883B98B1FFF77CFD82460BE08D
:100AC000286A40F004002862EEE700BFFFF772FDDD
:100AD000A0EB0A0159455AD8286A8007F6D50CE0E0
:100AE000FFF768FD824605E0FFF764FDA0EB0A0111
:100AF00059454CD8286A8007F6D41FB1E86920F020
:100B00008050E861E06988B36968C1F38101022916
:100B100044D00228C6F8608004D0FFF74BFD04469D
:100B200038E034E0FFF746FD074604E0FFF742FDFA
:100B3000C01B02282BD828688001F7D4206AB0F5A2
:100B4000803F05D16868A16820F4003008436860E0
:100B5000D4E908010843696821F474110843686006
:100B6000C6F86090FFF726FD044606E025E000BFCA
:100B7000FFF720FD001B022809D828688001F7D55F
:100B80001BE000BFFFF716FD001B022802D903205F
:100B9000BDE8F88F28688001F4D40EE00128F7D072
:100BA0006868226A00F48031914204D1616A00F4DD
:100BB0007010884201D00120EAE70020E8E7000039
:100BC000001002400000424280044242180000200F
:100BD0000070004070B5040009D0606A002540B183
:100BE00025616561A56294F8510040B10CE00120D7
:100BF00070BD6068B0F5827FF4D0E561F2E784F8FB
:100C00005050204600F040F8022084F8510020683F
:100C1000016821F040010160A088218900F4827000
:100C200001F404410843A18901F400610843217CD7
:100C300001F002010843217D01F001010843218BED
:100C400001F400710843217F01F03801084394F852
:100C5000201001F080010843218D01F40051084368
:100C600021680860A069042101EA104021684860F9
:100C70002068C16921F40061C1616565012084F8C3
:100C80005100002070BD000030B585B000240094F4
:100C900001940294039400681449884223D11448B3
:100CA000816941F480518161816901F4805104912D
:100CB000816941F00401816180690E4D00F00400FA
:100CC0000490A02000900220019003200390694628
:100CD0002846FFF775FB4020CDE900046946284609
:100CE0000294FFF76DFB05B030BD000000300140FD
:100CF00000100240000801402DE9FF4F81B01D4661
:100D0000934604464FF001090E9EFFF753FC074639
:100D100094F851006168012806D0B1F5827F3CD17A
:100D2000A168C9BB042838D10298002871D0BBF152
:100D3000000FFBD0002DF9D094F8500001282CD0E2
:100D40004FF0010A84F850A094F85100042802D012
:100D5000052084F851004FF00008C4F85480C4F80E
:100D600038B0E587A58702992163E586A586C4F892
:100D70004080C4F8448020680168490603D40168B3
:100D800041F040010160E068B0F5006F606808D094
:100D9000F0B3012D49D081E0FFE7022005B0BDE8A6
:100DA000F08F08B1012D39D1206B21680088C8600F
:100DB000206B801C2063E08E401EE0862EE02068C1
:100DC000816889070FD5E18E69B1B9F1010F0AD1A8
:100DD000216B0988C160206B801C2063E08E401E5F
:100DE000E0864FF0000920688168C9070CD0E18FC8
:100DF00051B1C068A16B0880A06B801CA063E08F1C
:100E0000401EE0874FF00109FFF7D4FBC01B01E053
:100E10000BE067E0B04201D3701C50D1E08E002897
:100E2000CDD1E08F0028CAD13EE0206B2168007848
:100E30000873206B401C2063E08E401EE0862DE08E
:100E40002068816889070FD5E18E69B1B9F1010F7A
:100E50000AD1216B09780173206B401C2063E08E5E
:100E6000401EE0864FF0000920688168C9070CD059
:100E7000E18F51B1C068A16B0870A06B401CA063EA
:100E8000E08F401EE0874FF00109FFF793FBC01B86
:100E9000B04202D3701C01D011E086B1E08E002870
:100EA000CED1E08F0028CBD13A463146204600F023
:100EB000BCFA50B12020606584F8508012E084F8BC
:100EC00051A084F85080032068E7A06818B9206812
:100ED000C1688068009084F851A084F85080606DEB
:100EE0000028F1D0012059E710B5401EB0F1807FF5
:100EF00001D3012010BD4FF0E02460610F21601785
:100F000000F074FC0020A06107202061002010BDCB
:100F100070477047F8B5016804460868CA684B69AD
:100F200010F00F0F4FF0000559D003F0010602F446
:100F30009077374365D0C10705D0D10503D5616CE3
:100F400041F001016164410705D5D90703D0616C07
:100F500041F002016164810705D5D90703D0616CB6
:100F600041F004016164010707D502F0200131431B
:100F700003D0616C41F008016164616C00293AD0D2
:100F8000800604D5900602D5204600F027FB206895
:100F90004069616CC0F38010090700D460B320463B
:100FA00000F0F5FA20684069400621D52068143029
:100FB00050E8001F21F0400140E80012002AF5D15E
:100FC000E06BA8B16D494163E06BFFF747F900287A
:100FD00011D0E06B416B01B0BDE8F04008478306DB
:100FE0000FD593060DD52046BDE8F84000F0F6BABF
:100FF0002046FFF78EFFF8BD2046FFF78AFF6564A5
:10100000F8BD266B2023012E7CD1C6067AD5D606E4
:1010100078D508684868009048694FF00206400695
:1010200040D5E16B086840680004000CE8D0A28D50
:101030008242E5D9E085886920282DD020680C30CF
:1010400050E8001F21F4807140E80012002AF5D119
:101050002068143050E8001F21F0010140E8001220
:10106000002AF5D12068143050E8001F21F040011B
:1010700040E80012002AF5D184F842302563206848
:101080000C3050E8001F21F0100140E80012002A47
:10109000F5D1E06BFFF7BFF86663A08DE18D401AD4
:1010A00081B22AE0A08DE18D401A81B2E08D002846
:1010B000A6D00029A4D022680C3252E8000F20F4F8
:1010C000907042E80007002FF5D12068143050E8F6
:1010D000002F22F0010240E80027002FF5D184F80C
:1010E0004230256320680C3050E8002F22F01002B7
:1010F00040E80023002BF5D166632046FFF708FF88
:10110000F8BDFFE705062BD5150629D594F8410053
:101110002128F5D1A068B0F5805F01D12069B0B178
:10112000206A411C2162216800784860E08C401EE2
:101130000004000CE084E3D12068C16821F0800144
:10114000C1602068C16841F04001C160D8E7206AF1
:101150000088C0F308004860206A801C2062E5E730
:101160004006CDD55006CBD5CA68204622F04002B5
:10117000CA6084F8413000F076F8C1E77F150008B6
:1011800070B5040004D094F84100002510B106E0C9
:10119000012070BD84F84050204600F023F8242040
:1011A00084F841002068C16821F40051C1602046E4
:1011B00000F076FA2068016921F49041016120680D
:1011C000416921F02A0141612068C16841F4005160
:1011D000C1606564202084F8410084F842006563A2
:1011E000002070BD30B585B00024009401940294B5
:1011F00003940068184988422CD11848816941F449
:1012000080418161816901F480410491816941F0EB
:10121000040181618069124D00F0040004904FF4D4
:101220000070009002200190032003906946284638
:10123000FFF7C6F82815CDE9000469462846029450
:10124000FFF7BEF8002211462520FFF71FFA2520E0
:10125000FFF70EFA05B030BD003801400010024023
:101260000008014070477047FEE700001E4810B5B7
:10127000816986B041F00801816180691C4C00F0F1
:101280000800049044F203400090184801900120A7
:1012900002900320039069462046FFF791F84FF42F
:1012A0006050009000200190022002906946204684
:1012B000FFF786F8002202210620FFF7E7F9062053
:1012C000FFF7D6F9002202210720FFF7DFF90720F8
:1012D000FFF7CEF9002202212820FFF7D7F92820B6
:1012E000FFF7C6F906B010BD001002400000211043
:1012F000000C01402DE9F04385B0002425480094FE
:10130000019402940394816941F020018161816913
:1013100001F020010491816941F00401816181693A
:1013200001F004010491816941F008018161806943
:10133000DFF8648000F0080004900022102140468D
:10134000FFF733F9DFF854904FF440770022394625
:101350004846FFF72AF9102001250226CDE90005AD
:10136000CDE9024669464046FFF72AF8A8030090F7
:101370000B48CDE9010569464846FFF721F800977B
:101380000396CDE9015469464846FFF719F805B0C0
:10139000BDE8F0830010024000080140000C01404D
:1013A00000001110104810B50E4901604FF4827111
:1013B000416000218160C1604FF400720161C0E9A9
:1013C00005120822C0E90721416281620A21C16237
:1013D000FFF700FC002803D0BDE81040FEF719BF5E
:1013E00010BD000000300140B40000200C4810B5D2
:1013F0000A4901604FF4E1314160002181600C2213
:10140000C160C0E904128161C161FFF7B9FE002823
:1014100003D0BDE81040FEF7FCBE10BD003801400F
:101420000C010020FEE7FEE77047F8B515460E46B2
:101430000B46009204460122022100F011F840B947
:101440003346002280212046009500F009F800284C
:1014500004D0606D40F0200060650320F8BD0000FE
:101460002DE9F8431E46914688460446089DFFF73D
:10147000A1F8401B351AFFF79DF80746254800687C
:10148000C0F3CB30684338E0701C37D0FFF792F8D8
:10149000C01BA84203D215B1009860B32CE02068AD
:1014A000416821F0E00141606068B0F5827F0BD1B6
:1014B000A068B0F5004F02D0B0F5806F04D120686D
:1014C000016821F040010160A06AB0F5005F09D118
:1014D0002068016821F4005101602068016841F42E
:1014E00000510160012084F85100002084F8500070
:1014F0000320BDE8F8830025401E00902068816825
:1015000038EA010004D000214945BDD10020F0E7B0
:101510000121F9E7180000207047FFF751B830B5F6
:101520008FB028216846FEF704FE14210AA8FEF7B2
:1015300000FE01210804CDE90010002402940225D8
:101540000491CDE907504FF4E01009906846FFF789
:10155000B1F908B172B6FEE70F20CDE90A054FF4E4
:101560008060CDE90C4002210AA80E94FFF7C0F874
:10157000002801D072B6FEE70FB030BD704710B53D
:10158000406A0021C185C184FFF7C3FC10BD01681A
:101590000C3151E8002F22F4907241E80023002B17
:1015A000F5D10168143151E8002F22F0010241E821
:1015B0000023002BF5D1016B012909D101680C3101
:1015C00051E8002F22F0100241E80023002BF5D152
:1015D000202180F8421000210163704708B590F87F
:1015E0004210222901D0022008BD82684FF48053A6
:1015F0009A4201D1016921B1816A9A421BD04AB154
:101600000AE00268816A5268C2F308020A80816AAD
:10161000891C08E0026972B10268526802F07F0218
:101620000A70816A491C8162C18D491E0904090C36
:10163000C18503D01BE002685268F1E70168CA68FF
:1016400022F02002CA600168CA6822F48072CA606F
:1016500001684A6922F001024A61202180F84210A3
:1016600000214163026B012A03D0FFF7FBFD00203C
:1016700008BD016301680C3151E8002F22F010020F
:1016800041E80023002BF5D101680A68D20602D593
:101690000A6849680091818DFFF73AFCE7E700008E
:1016A00070B5044600680169E26821F440511143B5
:1016B00001612169A0680843616908432168CA681B
:1016C00041F20C639A430243CA6020684169A269EF
:1016D00021F44071114341611E492068884202D1C2
:1016E000FFF7B2F801E0FFF79FF800EBC00101EB54
:1016F0000012606864218000B2FBF0F3B3FBF1F3E9
:101700006FF018067343B2FBF0F5B2FBF0F605EB91
:101710008305322303EB0515B5FBF1F5B6FBF1F6B6
:1017200005F0F00505EB0615B2FBF0F6B2FBF0F0A4
:10173000B0FBF1F06FF01802504306EB800003EBB2
:101740000010B0FBF1F0216800F00F002844886021
:1017500070BD00000038014038B5134801680868C2
:10176000124CC043124A80060AD412480068C3B221
:10177000114803702078802802D21354401C207036
:101780000868C043C0060AD408680025486800906D
:1017900020780749155409A000F018F82570BDE815
:1017A00038400148FFF7B6BB0C01002008000020BC
:1017B000340000200438014009000020526563769F
:1017C0003A2025730D0A0000FEE700000FB4054B18
:1017D00010B503A9044A029800F027F810BC5DF880
:1017E00014FB0000611900081C0000200907090E05
:1017F000002804DB00F1E02080F80014704700F0BE
:101800000F0000F1E02080F8141D704702E008C8C6
:10181000121F08C1002AFAD170477047002001E06A
:1018200001C1121F002AFBD170472DE9F84F9946DC
:10183000924688460546002706E025280AD05146EC
:101840004A4690476D1C7F1C28780028F5D1384601
:10185000BDE8F88F002315F8011F18462E2915D171
:1018600015F8011F04232A290DD06FF02F022978C3
:10187000A1F13004092C09D800EB800002EB4000F4
:1018800008446D1CF3E758F8040B6D1C2A78002AF5
:10189000DDD0632A07D0732A0FD0104651464A463E
:1018A00090477F1C2AE018F8042B8DF800200021B7
:1018B0008DF801106E46012103E058F8046B4FF0DB
:1018C000FF315A074FF0000401D409E0641C844240
:1018D0000BDA8C42FADB325D002AF7D105E0641C9A
:1018E0008C42FCDB305D0028F9D1274404E016F877
:1018F000010B51464A469047641EF8D26D1CA3E77F
:101900000D4800B5816985B041F0100181618069A1
:10191000694600F0100004904FF400500090012040
:1019200001900290032003900448FEF749FD00F067
:1019300007F805B000BD0000001002400010014093
:10194000012251030148FEF730BE000000100140A3
:1019500000224FF400510148FEF727BE001001405D
:1019600004490A681206FCD5024AC1B2121D116070
:1019700070470000003801401E4A002011780029FD
:1019800037D0312928D00EDC21291FD006DC1129BF
:1019900016D0122916D0132929D115E0222917D0E3
:1019A000232924D116E041291CD004DC322915D08A
:1019B00033291CD114E0422916D0432917D115E050
:1019C000312014E0322012E0332010E034200EE009
:1019D00035200CE036200AE0372008E0382006E009
:1019E000392004E02A2002E0302000E023200021FA
:1019F00011707047000000200C4800B5816985B067
:101A000041F0080181618069694600F00800049096
:101A10008020009001200190029003200390044850
:101A2000FEF7CEFC00F006F805B000BD0010024045
:101A3000000C0140012280210148FEF7B6BD0000E4
:101A4000000C0140002280210148FEF7AEBD0000DD
:101A5000000C0140FEF7BCFDFFF761FDFFF74AFCFB
:101A6000FFF7C4FCFFF79EFC1FA0FFF7AFFE234863
:101A70000168CA6842F02002CA600068C16841F08B
:101A80001001C160FEF77CFBFFF73AFFFFF7EEFBAA
:101A9000FFF7B2FF00F0E6F800F0A4FB18A0FFF794
:101AA00095FE00F005FB00BF00F0F0F900F048FBE8
:101AB00023280CD02A28F7D100F03CFA00F040FB94
:101AC00000F018FB01280CD000F0E5FBECE700F07B
:101AD00011FB012802D000F0ADFBE5E700F090FB20
:101AE000E2E700F0C3FBDFE753797374656D2053C1
:101AF000746172746564210D0A0000000C010020FD
:101B000068656C6C6F20776F726C64210D0A000041
:101B100070B5064600242146002000F0F3F80025A9
:101B2000304600F0AEFA6D1CEDB2802DF8D3641C87
:101B3000E4B2082CEFD370BD134810B5816986B0AC
:101B400041F008018161816901F008010491816916
:101B500041F00801816180690C4C00F0080004909C
:101B60004FF48070009001200190029003200390B8
:101B700069462046FEF724FC601500906946204621
:101B8000FEF71EFC06B010BD00100240000C014024
:101B900070B50122064D140221462846FEF705FDC8
:101BA00021462846BDE870400022FEF7FEBC00003A
:101BB000000C014070B501220B4D1402214628464D
:101BC000FEF7F3FC0122560231462846FEF7EDFCF3
:101BD000002231462846FEF7E8FC21462846BDE8AB
:101BE00070400022FEF7E1BC000C014070B5094CCA
:101BF000012211022046FEF7D8FC65150022294675
:101C00002046FEF7D2FC29462046BDE8704001225E
:101C1000FEF7CBBC000C01402DE9F041104F002530
:101C200004464FF40078BE15200601D5012200E0DD
:101C3000002241463846FEF7B8FC6006040E012239
:101C400031463846FEF7B1FC002231463846FEF7F1
:101C5000ACFC6D1CEDB2082DE6D3BDE8F0810000B0
:101C6000000C014010B5FFF767FF6420FEF7A6FAED
:101C7000AE2000F0EFF9D52000F0ECF9802000F064
:101C8000E9F9A82000F0E6F93F2000F0E3F9D320BD
:101C900000F0E0F9002000F0DDF9402000F0DAF972
:101CA000A12000F0D7F9C82000F0D4F9DA2000F024
:101CB000D1F9122000F0CEF9812000F0CBF9CF202D
:101CC00000F0C8F9D92000F0C5F9F12000F0C2F900
:101CD000DB2000F0BFF9302000F0BCF9A42000F0B8
:101CE000B9F9A62000F0B6F98D2000F0B3F9142060
:101CF00000F0B0F9AF2000F0ADF9BDE810400020D1
:101D0000FFF706BF10B50446B031C8B200F0A2F923
:101D100004F00F0000F09EF9102040EA1410BDE816
:101D2000104000F097B910B50020FFF7F1FE052331
:101D3000002201210A2000F065F801220523114646
:101D40001E2000F05FF8052302220121322000F05E
:101D500059F8052303220121462000F053F80523FA
:101D6000042201215A2000F04DF805230121BDE88D
:101D700010401A466E2000F045B800002DE9FF5FC4
:101D8000203ADF081E468B4602F0FF0A580700D0B3
:101D90007F1C00244FEA560929E000BF0BEB04002A
:101DA000C1B20098FFF7AEFF09FB04F0641CC5B296
:101DB00009FB04F818E00C2E04D0102E06D0182EC3
:101DC00008D00FE00AEB4A000B4906E00B4901EB93
:101DD0000A1004E00A490AEBCA0001EB8000405DEA
:101DE00000F04FF96D1CEDB2A845E4D8E4B2BC4256
:101DF000D4D3BDE8FF9F00000C290008802D000807
:101E0000703300082DE9F05F9A4691460F468346ED
:101E100000254FF6FF787819C1B25846FFF772FFD8
:101E20002E0108EA0514103614E000BFBAF1070FBE
:101E30000ED2DFE80AF0040617191C1E21000F4914
:101E400001E00E49C03101EB4910005D00F019F9C5
:101E5000641CA4B2A642E9D86D1CADB2022DDAD33F
:101E6000BDE8F09F0649EEE705498031EBE70549FB
:101E7000E9E70449C031E6E70349E4E76C240008D8
:101E8000AC250008EC2600086C28000810B50020DE
:101E9000FFF73EFE00231A4601210A20FFF7B2FF9A
:101EA0000122002311461E20FFF7ACFF002302226F
:101EB00001213220FFF7A6FF002303220121462043
:101EC000FFF7A0FF0023042201215A20FFF79AFF09
:101ED00010233A220121BDE810406E20FFF74EBFCB
:101EE00010B50020FFF714FE0423002201210A2070
:101EF000FFF788FF0122042311461E20FFF782FF0F
:101F00000423022201213220FFF77CFF0423032255
:101F100001214620FFF776FF04231A4601215A20AB
:101F2000FFF770FF042305220121BDE810406E2059
:101F3000FFF768BF10B50020FFF7EAFD032300227A
:101F400001210A20FFF75EFF0122032311461E2014
:101F5000FFF758FF0323022201213220FFF752FF2F
:101F600003231A4601214620FFF74CFF03230422D6
:101F700001215A20FFF746FF032305220121BDE876
:101F800010406E20FFF73EBF10B50020FFF7C0FDE8
:101F90000123002219461420FFF734FF01231A46BB
:101FA00019462D20FFF72EFF012302221946462055
:101FB000FFF728FF01230322BDE8104019465F20E8
:101FC000FFF720BF10B50020FFF7A2FD0623002277
:101FD00001210A20FFF716FF0122062311461E20C9
:101FE000FFF710FF0623022201213220FFF70AFF2C
:101FF0000623032201214620FFF704FF06230422C3
:1020000001215A20FFF7FEFE10233A220121BDE8EC
:1020100010406E20FFF7B2BE10B50020FFF778FD2C
:102020000223002201211420FFF7ECFE01220223EB
:1020300011462D20FFF7E6FE02231A460121462015
:10204000FFF7E0FE022303220121BDE810405F20DC
:10205000FFF7D8BE10B50446FFF7ACFD7820FFF7B8
:10206000DBFDFFF795FD0020FFF7D6FDFFF790FDA4
:102070002046FFF7D1FDFFF78BFDBDE81040FFF7CD
:10208000B5BD10B50446FFF795FD7820FFF7C4FDF8
:10209000FFF77EFD4020FFF7BFFDFFF779FD2046EB
:1020A000FFF7BAFDFFF774FDBDE81040FFF79EBDD6
:1020B00010B50A220A49002000F02CF9084909A0AD
:1020C000FFF784FB0648007808B1FF2807D1FFF727
:1020D00079FF00F035F8BDE8104000F0E5B810BD1C
:1020E0002A000020C7EBB3F6C3DCC2EBA3BA25730A
:1020F0000D0A000070B500240A221049204600F0A5
:1021000009F90E480A38FEF71FF805460B48FEF796
:102110001BF8854207D1094DA5F10A0607E0305D9D
:10212000295D884201D0002070BD641CE4B20348E0
:10213000FEF70AF8A042F2D8012070BD2A00002064
:1021400070B500F051F8164C164D1426FFF714FC2C
:102150006070232818D02A281CD00028F6D0014609
:1021600011A0FFF733FB2078102300EB800006EB73
:102170004000C0B262780421FFF700FE2078617849
:102180002954401C2070E1E706490BA0FFF71EFB15
:10219000232070BD0FA0FFF719FB2A2070BD00009F
:1021A0000100002020000020B0B4CFC2C1CBA3BAF0
:1021B00025630D0A00000000B0B4CFC2C1CB23BA22
:1021C000C5BCFCA3AC696E7075743A2025730D0A0A
:1021D00000000000B0B4CFC2C1CB2ABAC5BCFC0D10
:1021E0000A00000000F08EB8034900200860486033
:1021F000088102490870704720000020010000207B
:1022000010B5FFF7C1FEFFF71DFCFFF7A1FB4FF470
:102210009670FDF7D3FFFFF793FB4FF47A70FDF74D
:10222000CDFFFFF707FC02490020887010BD0000B9
:102230000100002070B5FFF7EFFE0B4C4FF47A75EC
:10224000A078401CC1B2A170032908D3FFF780FB1E
:102250002846FDF7B3FFFFF773FB0020A070284668
:10226000BDE87040FDF7AABF0100002010B5FFF7E0
:1022700037FEFFF765FF00F017F8FFF769FB4FF433
:102280009670FDF79BFFFFF75BFBBDE810404FF436
:10229000FA70FDF793BF10B5FFF7BEFEBDE8104022
:1022A0004FF47A70FDF78ABF10B5002000F00CF8EB
:1022B0000A220449002000F0A9F8BDE81040FFF709
:1022C00032BD00002000002070B5054600F08AF8FD
:1022D00000F080F80A4C002210212046FEF765F934
:1022E000202000F063F8284600F050F80122102169
:1022F0002046FEF75AF9BDE8704000F06BB80000C8
:1023000000080140012210210148FEF74EB90000EB
:10231000000801402DE9F041DFF83C8015460E46EB
:1023200007460024224610214046FEF73EF90320CE
:1023300000F03CF8384600F029F804E0FF2000F0F7
:1023400035F83055641CAC42F8D34046BDE8F04146
:1023500001221021FEF729B90008014070B50A4D8D
:10236000002210212846FEF720F9052000F01EF873
:10237000FF2000F01BF80446012210212846FEF73A
:1023800014F9204670BD00000008014010B5044655
:10239000C0F3074000F00AF8C4F3072000F006F885
:1023A000E0B2BDE8104000F001B8000001B582B015
:1023B00000208DF804004FF47A700090012301AAE8
:1023C00002A90348FEF798FC9DF804000EBD00002A
:1023D000B40000202DE91040FFF7C0FFC007FBD17B
:1023E00010BD000010B5084C002210212046FEF759
:1023F000DCF80620FFF7DAFF20460122BDE8104096
:102400001021FEF7D2B80000000801402DE9F0418C
:1024100015460E4607460024FFF7E4FFDFF8388034
:10242000002210214046FEF7C0F80220FFF7BEFF51
:102430003846FFF7ABFF04E0305DFFF7B7FF641CE1
:10244000A4B2AC42F8D3012210214046FEF7ADF809
:10245000BDE8F041FFF7BEBF0008014000080010D2
:102460000020000001000200004000044042CC00B7
:1024700000445454547F54545444400000007F207E
:102480001000FF15151555957F00000088681FC8BE
:102490000810C85452D1129408D01000091909FF2D
:1024A0000500FF1292FF005F807F00000000000027
:1024B0000001E21CE000000000000000804020104D
:1024C0000C03000000030C3040808000108C44049A
:1024D000E40495A64424148444940C0002027A4136
:1024E0004143427E42424243F80000000484E45CDF
:1024F00044C40002F2828282FE80800002017F10CA
:10250000103F00080808084888403F00000000000D
:10251000000000000000000000000000000036364F
:10252000000000000000000000000000108C4404C7
:10253000E40495A64424148444940C0002027A41D5
:102540004143427E42424243F80000000484E45C7E
:1025500044C40002F2828282FE80800002017F1069
:10256000103F00080808084888403F00000202C2E7
:10257000020202FE82828282820200004040407F8C
:102580004040407F40404040404040000484E45C84
:1025900044C42010E82724E4342CE00002017F101A
:1025A000103F80601F09093F49897F00108C440457
:1025B000E40495A64424148444940C0002027A4155
:1025C0004143427E42424243F80000000484E45CFE
:1025D00044C40002F2828282FE80800002017F10E9
:1025E000103F00080808084888403F004030EF24AA
:1025F0006448487F4848487F4848400001017F219F
:102600001100FF4949494949FF0000004042CC0000
:1026100000809E92929292929E80000000007F2005
:1026200094844424140F1424448484004042CC0035
:1026300000445454547F54545444400000007F20BC
:102640001000FF15151555957F00000088681FC8FC
:102650000810C85452D1129408D01000091909FF6B
:102660000500FF1292FF005F807F00000000000065
:102670000001E21CE000000000000000804020108B
:102680000C03000000030C30408080000000FF00BD
:102690000000FE828282828282FE00000000FF0033
:1026A00000007F2020202020207F0000108C440488
:1026B000E40495A64424148444940C0002027A4154
:1026C0004143427E42424243F80000000484E45CFD
:1026D00044C40002F2828282FE80800002017F10E8
:1026E000103F00080808084888403F004042CC00DE
:1026F00000445454547F54545444400000007F20FC
:102700001000FF15151555957F00000088681FC83B
:102710000810C85452D1129408D01000091909FFAA
:102720000500FF1292FF005F807F000000000000A4
:102730000001E21CE00000000000000080402010CA
:102740000C03000000030C304080800040445465BE
:10275000C664544400FC4444C442400020124A82EF
:102760007F020A92601F0000FF000000108C4404EA
:10277000E40495A64424148444940C0002027A4193
:102780004143427E42424243F80000000484E45C3C
:1027900044C40002F2828282FE80800002017F1027
:1027A000103F00080808084888403F00108C440487
:1027B000E40495A64424148444940C0002027A4153
:1027C0004143427E42424243F80000000484E45CFC
:1027D00044C40002F2828282FE80800002017F10E7
:1027E000103F00080808084888403F004020F807CC
:1027F000F0A0904C5724A4544C8080000000FF00AF
:102800001F80925249292412080000000484848405
:1028100084FC4030CC0B0808F8080800007F20102A
:102820001008804021160816214080000000F8881A
:102830008888880808FF08090AC8080080601F0007
:1028400010201F80402116182641F800080808F8BB
:102850000808081010FF101010F000001030101FB2
:10286000088848300E014080403F00004042CC00C4
:1028700000445454547F54545444400000007F207A
:102880001000FF15151555957F000000404042CC03
:102890000040A09E8282829EA02020000000003F77
:1028A000908840432C10284641808000100C4444FE
:1028B000444445C64444444444140C008040201E13
:1028C0002040407F4444444444404000108C440431
:1028D000E40495A64424148444940C0002027A4132
:1028E0004143427E42424243F80000000484E45CDB
:1028F00044C40002F2828282FE80800002017F10C6
:10290000103F00080808084888403F000000000009
:1029100000000000000000000000FC0000000000BB
:1029200002000000000C020C020000000000000089
:1029300090D0BCD0BC900003000300001824FE44DB
:102940008C000302070201001824D8B04C80000359
:1029500000010201C038E438E00001020201020275
:10296000080600000000000000000000000000F861
:102970000402000000010204000204F80000000448
:10298000020100009060F86090000000010000006B
:102990002020FC20200000000100000000000000BA
:1029A0000000080600000000202020202000000079
:1029B0000000000000000000000000020000000015
:1029C0000080601C0200040300000000F8040404FE
:1029D000F8000102020201000008FC0000000002F1
:1029E00003020000188444241800030202020200BB
:1029F00008042424D80001020202010040B088FC2F
:102A000080000000000302003C242424C4000102D2
:102A100002020100F824242CC0000102020201007D
:102A20000C04E41C0400000003000000D82424244B
:102A3000D80001020202010038444444F8000003B7
:102A4000020201000000100000000000020000006F
:102A50000000200000000000060000000020508858
:102A6000040200000000010290909090900000008D
:102A70000000000000020488502000020100000055
:102A80001804C4241800000002000000F804E494B4
:102A9000F80001020202020000E09CF08000020344
:102AA0000000030204FC2424D800020302020100F7
:102AB000F80404040C0001020202010004FC0404F6
:102AC000F80002030202010004FC24740C0002035B
:102AD0000202030004FC24740C0002030200000044
:102AE000F0080444CC4000010202010004FC202054
:102AF000FC040203000003020404FC0404000202BC
:102B000003020200000404FC0404060404030000A1
:102B100004FC24D00C0402030200030204FC0400A1
:102B20000000020302020203FC3CC03CFC00030064
:102B30000300030004FC30C4FC0402030200030091
:102B4000F8040404F80001020202010004FC242439
:102B50001800020302000000F8848404F800010257
:102B60000207050004FC246498000203020003022B
:102B7000182424448C000302020201000C04FC040B
:102B80000C0000020302000004FC0000FC04000131
:102B900002020100047C80E01C040000030000002D
:102BA0001CE03CE01C00000300030000049C609C4F
:102BB0000400020300030200041CE01C04000002E5
:102BC000030200000C84641C0400020302020300E0
:102BD0000000FE020200000007040400000E30C0E6
:102BE0000000000000010200000202FE00000004DC
:102BF00004070000000402040000000000000000C0
:102C00000000000000000808080808080000020092
:102C100000000000000000000040A0A0C000000173
:102C20000202030204FC2020C00000030202010093
:102C300000C02020600000010202020000C0202429
:102C4000FC0000010202030200C0A0A0C0000001BD
:102C5000020202000020F824240400020302020001
:102C60000040A0A0602000070A0A0A0404FC2020FB
:102C7000C0000203020003020020E4000000000282
:102C800003020000000020E400000808080700001C
:102C900004FC80E020200203020003020404FC0084
:102CA0000000020203020200E020E020C000030056
:102CB0000300030020E02020C00002030200030202
:102CC00000C02020C00000010202010020E02020FE
:102CD000C000080F0A02010000C02020E00000012F
:102CE000020A0F0820E0402020000203020000003A
:102CF0000060A0A020000002020203000020F820D3
:102D0000000000000102020020E00020E0000001BD
:102D10000202030220E02080602000000301000086
:102D20006080E0806000000300030000206080609D
:102D3000200002030003020020E020806020080839
:102D4000070100000020A060200000020302020032
:102D5000000020DE0200000000070400000000FF69
:102D600000000000000F00000002DE200000000450
:102D7000070000000201020404020000000000003D
:102D80000000000000000000000000000000000043
:102D9000000000F8000000000000003330000000D8
:102DA00000100C06100C06000000000000000000DF
:102DB00040C07840C0784000043F04043F04040051
:102DC000007088FC08300000001820FF211E000061
:102DD000F008F000E018000000211C031E211E0076
:102DE00000F00888700000001E21232419272110FC
:102DF00010160E000000000000000000000000009F
:102E0000000000E018040200000000071820400045
:102E100000020418E0000000004020180700000035
:102E2000404080F0804040000202010F0102020099
:102E3000000000F0000000000101011F010101007D
:102E4000000000000000000080B0700000000000E2
:102E5000000000000000000000010101010101016B
:102E60000000000000000000003030000000000002
:102E700000000000806018040060180601000000D7
:102E800000E010080810E000000F102020100F00D4
:102E9000001010F8000000000020203F202000005B
:102EA00000700808088870000030282422213000B3
:102EB00000300888884830000018202020110E00BB
:102EC0000000C02010F8000000070424243F240064
:102ED00000F80888880808000019212020110E0039
:102EE00000E0108888180000000F112020110E004B
:102EF00000380808C83808000000003F0000000043
:102F00000070880808887000001C222121221C0003
:102F100000E010080810E0000000312222110F002C
:102F2000000000C0C00000000000003030000000C1
:102F30000000008000000000000080600000000031
:102F4000000080402010080000010204081020004A
:102F50004040404040404000040404040404040095
:102F6000000810204080000000201008040201002A
:102F7000007048080808F00000000030360100002A
:102F8000C030C828E810E0000718272423140B00DD
:102F90000000C038E0000000203C23020227382057
:102FA00008F8888888700000203F202020110E003B
:102FB000C030080808083800071820202010080032
:102FC00008F808080810E000203F202020100F001B
:102FD00008F88888E8081000203F202023201800E7
:102FE00008F88888E8081000203F2000030000004F
:102FF000C03008080838000007182020221E0200F0
:1030000008F808000008F808203F210101213F20AE
:10301000000808F8080800000020203F20200000D9
:1030200000000808F8080800C08080807F000000C9
:1030300008F888C028180800203F20012638200002
:1030400008F8080000000000203F20202020300069
:1030500008F8F800F8F80800203F003F003F200083
:1030600008F830C00008F808203F200007183F008B
:10307000E01008080810E0000F10202020100F00BA
:1030800008F808080808F000203F210101010000AD
:10309000E01008080810E0000F18242438504F00F2
:1030A00008F8888888887000203F2000030C3020B2
:1030B00000708808080838000038202121221C00F0
:1030C000180808F8080818000000203F2000000039
:1030D00008F808000008F808001F202020201F0022
:1030E0000878880000C83808000007380E01000082
:1030F000F80800F80008F800033C0700073C03004C
:10310000081868808068180820302C03032C3020B1
:103110000838C800C83808000000203F2000000020
:1031200010080808C8380800203826212020180078
:10313000000000FE020202000000007F404040004C
:10314000000C30C000000000000000010638C00084
:1031500000020202FE000000004040407F0000002C
:103160000000040202020400000000000000000051
:10317000000000000000000080808080808080804F
:103180000002020400000000000000000000000037
:1031900000008080808000000019242222223F202D
:1031A00008F8008080000000003F112020110E0070
:1031B0000000008080800000000E112020201100FF
:1031C000000000808088F800000E112020103F20B1
:1031D0000000808080800000001F22222222130035
:1031E000008080F0888888180020203F2020000080
:1031F0000000808080808000006B94949493600035
:1032000008F8008080800000203F210000203F203F
:1032100000809898000000000020203F202000003F
:10322000000000809898000000C08080807F00002F
:1032300008F8000080808000203F24022D3020000C
:10324000000808F8000000000020203F20200000B7
:103250008080808080808000203F20003F20003FD1
:103260008080008080800000203F210000203F20DF
:103270000000808080800000001F202020201F0090
:10328000808000808000000080FFA12020110E00BF
:103290000000008080808000000E112020A0FF80B0
:1032A000808080008080800020203F21200001005D
:1032B00000008080808080000033242424241900B2
:1032C000008080E0808000000000001F20200000BF
:1032D0008080000000808000001F202020103F2000
:1032E000808080000080808000010E300806010090
:1032F00080800080008080800F300C030C300F0035
:1033000000808000808080000020312E0E3120005F
:10331000808080000080808080818E70180601008F
:1033200000808080808080000021302C22213000AD
:1033300000000000807C020200000000003F4040CE
:1033400000000000FF00000000000000FF0000007F
:103350000002027C800000000040403F00000000AE
:103360000006010102020404000000000000000049
:10337000000000000000000000000000000000004D
:10338000000000000000000000000000000000003D
:10339000000000000000000000F0F0F0000000005D
:1033A0000000000000017F0100000000000000009C
:1033B000001C1C1C0000000000008060301C8C60A1
:1033C000301C0C00000000000000000000000000A5
:1033D000000000000000000000000000000000E00D
:1033E0000000000000E000000086E69F86868686DA
:1033F000E69F860000011F01010101011F0101007C
:10340000000080C06020F820E0C00000000003073A
:103410000C18FF70E18100000000070F10107F10F2
:103420000F0700008060206080000000E0200000A6
:103430000F3020309F70DC371030C0000000100EBD
:1034400003000718101807000000C02020E0C0008B
:103450000000000080E01F38E88703C43C0400003F
:10346000070F1810100B070D1010080000808C4C6F
:103470003800000000000000000000000000000014
:10348000000000000000000000000000000000003C
:1034900000000000000080E0300804000000000090
:1034A00000FEFF0100000000000000000000030F0C
:1034B0001820400000040830E080000000000000F8
:1034C0000000000001FFFE00000000000040201886
:1034D0000F03000000000000000000000000C0001A
:1034E00000000000004266663C18FF183C66664219
:1034F00000000000000003000000000000000000C9
:103500000000800000000000001010101010FF10DC
:103510001010101000000000000003000000000068
:10352000000000000000000000000000000000009B
:10353000000000000000000000808C4C38000000FB
:10354000000000000000000000000000000000007B
:1035500000101010101010101010100000000000CB
:10356000000000000000000000000000000000005B
:10357000000000000000000000000000000000004B
:1035800000001C1C1C0000000000000000000000E7
:1035900000000000E0380C000000000080701C03F8
:1035A000000000000060380E010000000000000074
:1035B000000080C060202060C080000000FEFF018D
:1035C0000000000001FFFE000001070E1810101897
:1035D0000E0701000000808080C0E00000000000B5
:1035E0000000000000FFFF000000000000001010BD
:1035F000101F1F10101000000080402020202060AD
:10360000C080000000030300804020381F07000036
:10361000001C1A1918181818181F00000080C02064
:10362000202060C080000000000303001010182F4D
:10363000E780000000070F10101010180F0700009F
:10364000000000000000C0E0F000000000C0B088F2
:10365000868180FFFF808000000000000010101FA6
:103660001F1010000000E06060606060606000009B
:1036700000003F1008080818F0E0000000070B10D9
:103680001010101C0F030000000080C040202020FC
:10369000E0C0000000FCFF211008080818F0E0005E
:1036A0000001070C18101010080F03000000C0E004
:1036B0006060606060E06000000003000000E018EF
:1036C0000700000000000000001F1F0000000000B5
:1036D0000080C0602020202060C080000087EF2C88
:1036E0001818303068CF830000070F081010101032
:1036F000180F07000000C0C020202020C08000005C
:10370000001F3F604040402010FFFE0000000C1CE6
:10371000101010080F03000000000000000000005F
:103720000000000000000000000E0E0E000000006F
:1037300000000000001C1C1C000000000000000035
:10374000000000000000000000000000000C0C0061
:1037500000000000000000000058380000000000D9
:103760000000000000000080402010000000102831
:10377000448201000000000000000000000001027F
:10378000040810000000000000000000000000001D
:103790000084848484848484848484000000000001
:1037A0000000000000000000000010204080000029
:1037B000000000000000000000000182442810000A
:1037C00000001008040201000000000000C02020DA
:1037D0001010101030E0C0000003030000F01008CB
:1037E0000C070300000000001C1C1C00000000006F
:1037F000000000C0406020202040C00000FCFF010D
:10380000F00E03C1FE03807F0001070E08111110A6
:10381000110904020000000080E0E0000000000048
:103820000000807C4340477FF880000010181F1084
:1038300000000000131F1C1020E0E020202020606A
:10384000C080000000FFFF10101010182FE780004C
:10385000101F1F1010101010180F0700000080C05C
:10386000402020202060E00000FCFF01000000005C
:10387000000001000001070E1810101008040300DA
:1038800020E0E02020202040C080000000FFFF005A
:103890000000000001FFFE00101F1F10101018088C
:1038A0000E07010020E0E020202020202060800082
:1038B00000FFFF101010107C00000000101F1F10F0
:1038C000101010101018060020E0E020202020200A
:1038D0006060800000FFFF101010107C00000100ED
:1038E000101F1F100000000000000000000080C03A
:1038F0006020202040E0000000FCFF01000040406C
:10390000C0C140400001070E181010100F0F00003A
:1039100020E0E0200000000020E0E02000FFFF1099
:103920001010101010FFFF00101F1F1000000000EB
:10393000101F1F100000202020E0E02020200000A9
:103940000000000000FFFF00000000000000101059
:10395000101F1F101010000000000000202020E0A9
:10396000E020202000000000000000FFFF00000019
:103970000060E0808080C07F3F00000020E0E02009
:10398000000020A06020200000FFFF30187CE3C072
:1039900000000000101F1F10000001131F1C181052
:1039A00020E0E020000000000000000000FFFF0019
:1039B0000000000000000000101F1F101010101069
:1039C0001018060020E0E0E000000000E0E0E02049
:1039D00000FF013FFEC0E01E01FFFF00101F1000AE
:1039E000031F0300101F1F1020E0E0C000000000B4
:1039F0000020E02000FF0003071C78E08000FF00AB
:103A0000101F100000000000030F1F00000080C006
:103A100060202060C080000000FEFF010000000068
:103A200000FFFE000001070E181010180C0701001F
:103A300020E0E0202020202060C0800000FFFF2048
:103A400020202020301F0F00101F1F10000000003A
:103A500000000000000080C060202060C0800000E6
:103A600000FEFF010000000000FFFE000001070E45
:103A70001111133C7C67210020E0E0202020202051
:103A800060C0800000FFFF101030F0D0080F07006A
:103A9000101F1F10000000030F1C10100080C060DA
:103AA000202020204040E00000070F0C1818303084
:103AB00060E08100001F0C0810101010180F0700A4
:103AC0008060202020E0E0202020608001000000B5
:103AD00000FFFF000000000100000000101F1F1089
:103AE0000000000020E0E020000000000020E020B6
:103AF00000FFFF00000000000000FF0000070F189B
:103B000010101010100807002060E0E020000000F6
:103B100020E060200000077FF88000807C03000028
:103B200000000000071F1C070000000020E0E0204C
:103B300000E0E0200020E0200007FFF8E01FFFFC8D
:103B4000E01F00000000031F0300011F030000002E
:103B5000002060E0A0000020E060200000000003E2
:103B60008F7CF8C6010000000010181E130001171A
:103B70001F1810002060E0E02000000020E060201E
:103B8000000001073EF8E0180700000000000010E8
:103B9000101F1F101000000000806020202020A0B7
:103BA000E0E0200000000000C0F03E0F0300000035
:103BB00000101C1F17101010101806000000000045
:103BC00000FC0404040404000000000000FF0000E6
:103BD0000000000000000000007F40404040400026
:103BE000000010E0000000000000000000000000E5
:103BF000031C6080000000000000000000000003C3
:103C00000C70800000000404040404FC00000000A8
:103C100000000000000000FF000000000000404025
:103C20004040407F0000000000000010080C040C21
:103C3000081000000000000000000000000000006C
:103C40000000000000000000000000000000000074
:103C50000000000000000000000000000000000064
:103C60000000000080808080808080808080808054
:103C7000000000040408080000000000000000002C
:103C80000000000000000000000000000000000034
:103C90000000000000000000000000000000000024
:103CA000000098D844642424FCF80000000F1F187A
:103CB000101010081F1F10180020E0F00000000076
:103CC000000000000000FFFF180804040CF8F000DA
:103CD00000001F0F18101010180F03000000000044
:103CE000000000000000000000E0F8180404043C9C
:103CF0003800000000030F0C101010100806000020
:103D00000000000000000020E0F0000000E0F81CCF
:103D100004040408FFFF000000030F18101010082F
:103D20001F0F08000000000000000000000000005D
:103D30000000E0F8484444444C7870000000030F51
:103D40000C181010100804000000000080C0602053
:103D500020E0C00000040404FFFF04040404000089
:103D6000000010101F1F10101000000000000000C5
:103D70000000000000000000000070F88C04048CBB
:103D8000F874040C007076CF8D8D8D89C878700022
:103D90000020E0F000000000000000000000FFFF35
:103DA00008040404FCF8000000101F1F100000109D
:103DB0001F1F1000000000000060600000000000F5
:103DC0000000040404FCFC000000000000001010CF
:103DD000101F1F1010100000000000000000006005
:103DE0006000000000000000040404FCFC0000006F
:103DF0000000C0C08080C07F3F0000000020E0F0D5
:103E000000000000000000000000FFFF80C0F41C64
:103E10000404000000101F1F1100031F1C101000DD
:103E20000000202020E0F000000000000000000062
:103E300000FFFF000000000000001010101F1F1006
:103E40001010000000000000000000000000000052
:103E500004FCFC0804FCFC0804FCFC00101F1F1000
:103E6000001F1F10001F1F100000000000000000B6
:103E7000000000000004FCFC08080404FCF800003A
:103E800000101F1F100000101F1F10000000000076
:103E9000000000000000000000E0F0180C04040C1A
:103EA00018F0E00000030F0C101010100C0F0300AE
:103EB0000000000000000000000000000004FCFC06
:103EC000080404040CF8F0000080FFFF8890101034
:103ED0001C0F0300000000000000000000000000B4
:103EE00000E0F81C04040408F8FC000000030F18AC
:103EF00010109088FFFF800000000000000000000C
:103F000000000000040404FCFC100804040C0C0075
:103F10001010101F1F101010000000000000000003
:103F2000000000000000000000003078CCC4848451
:103F3000840C1C0000001E1810101011190F060030
:103F40000000000000C000000000000000040404A5
:103F5000FFFF040404000000000000000F1F101009
:103F6000100C000000000000000000000000000035
:103F70000004FCFE00000004FCFE000000000F1F17
:103F8000181010081F0F08000000000000000000BB
:103F90000000000000040C3CFCC40000C43C0C0405
:103FA00000000000010F1E0E0100000000000000D4
:103FB0000000000000000000043CFCC400E47CFCA5
:103FC00084807C040000071F070000071F07000013
:103FD0000000000000000000000000000004041CBD
:103FE0007CE4C0341C0404000010101C1601131FD4
:103FF0001C1810000000000000000000000000007D
:1040000000040C3CFCC400C43C0404000000C0805C
:10401000C1370E0100000000000000000000000099
:104020000000000000001C0404C4F47C1C04000018
:104030000000101C1F17111010180E0000000000C7
:10404000000000F80C04000000000000001028EF41
:1040500000000000000000000000003F6040000081
:10406000000000000000FF00000000000000000051
:104070000000FF0000000000000000000000FF0042
:10408000000000000000040CF80000000000000028
:1040900000000000EF281000000000000000406059
:1040A0003F00000000000000001806020204081093
:1040B0002020300800000000000000000000000088
:1040C00000000000000000000000000001020203E8
:1040D0000405060708090A0B0C0D0E0F101000004E
:1040E00000000000000001020304060708090000A8
:1040F0000000010203040000184100080000002035
:10410000200000000C1800083841000820000020A2
:10411000380500001C180008000000000000000026
:10412000000000000100000010000000000000007E
:0841300000127A0000000000FB
:04000005080000ED02
:00000001FF
